{
  "address": "0x3b1235FB07403525407aC508B41Ec85B81B2D703",
  "abi": [
    {
      "inputs": [],
      "stateMutability": "nonpayable",
      "type": "constructor"
    },
    {
      "anonymous": false,
      "inputs": [
        {
          "indexed": true,
          "internalType": "address",
          "name": "owner",
          "type": "address"
        },
        {
          "indexed": true,
          "internalType": "address",
          "name": "spender",
          "type": "address"
        },
        {
          "indexed": false,
          "internalType": "uint256",
          "name": "value",
          "type": "uint256"
        }
      ],
      "name": "Approval",
      "type": "event"
    },
    {
      "anonymous": false,
      "inputs": [
        {
          "indexed": false,
          "internalType": "uint256",
          "name": "minTokensBeforeSwap",
          "type": "uint256"
        }
      ],
      "name": "MinTokensBeforeSwapUpdated",
      "type": "event"
    },
    {
      "anonymous": false,
      "inputs": [
        {
          "indexed": true,
          "internalType": "address",
          "name": "previousOwner",
          "type": "address"
        },
        {
          "indexed": true,
          "internalType": "address",
          "name": "newOwner",
          "type": "address"
        }
      ],
      "name": "OwnershipTransferred",
      "type": "event"
    },
    {
      "anonymous": false,
      "inputs": [
        {
          "indexed": false,
          "internalType": "uint256",
          "name": "tokensSwapped",
          "type": "uint256"
        },
        {
          "indexed": false,
          "internalType": "uint256",
          "name": "ethReceived",
          "type": "uint256"
        },
        {
          "indexed": false,
          "internalType": "uint256",
          "name": "tokensIntoLiqudity",
          "type": "uint256"
        }
      ],
      "name": "SwapAndLiquify",
      "type": "event"
    },
    {
      "anonymous": false,
      "inputs": [
        {
          "indexed": false,
          "internalType": "uint256",
          "name": "amount",
          "type": "uint256"
        }
      ],
      "name": "SwapAndLiquifyAmountUpdated",
      "type": "event"
    },
    {
      "anonymous": false,
      "inputs": [
        {
          "indexed": true,
          "internalType": "address",
          "name": "owner",
          "type": "address"
        },
        {
          "indexed": true,
          "internalType": "address",
          "name": "token",
          "type": "address"
        },
        {
          "indexed": false,
          "internalType": "enum TokenType",
          "name": "tokenType",
          "type": "uint8"
        },
        {
          "indexed": false,
          "internalType": "uint256",
          "name": "version",
          "type": "uint256"
        }
      ],
      "name": "TokenCreated",
      "type": "event"
    },
    {
      "anonymous": false,
      "inputs": [
        {
          "indexed": true,
          "internalType": "address",
          "name": "from",
          "type": "address"
        },
        {
          "indexed": true,
          "internalType": "address",
          "name": "to",
          "type": "address"
        },
        {
          "indexed": false,
          "internalType": "uint256",
          "name": "value",
          "type": "uint256"
        }
      ],
      "name": "Transfer",
      "type": "event"
    },
    {
      "inputs": [],
      "name": "MAX_FEE",
      "outputs": [
        {
          "internalType": "uint256",
          "name": "",
          "type": "uint256"
        }
      ],
      "stateMutability": "view",
      "type": "function"
    },
    {
      "inputs": [],
      "name": "VERSION",
      "outputs": [
        {
          "internalType": "uint256",
          "name": "",
          "type": "uint256"
        }
      ],
      "stateMutability": "view",
      "type": "function"
    },
    {
      "inputs": [],
      "name": "_charityAddress",
      "outputs": [
        {
          "internalType": "address",
          "name": "",
          "type": "address"
        }
      ],
      "stateMutability": "view",
      "type": "function"
    },
    {
      "inputs": [],
      "name": "_charityFee",
      "outputs": [
        {
          "internalType": "uint256",
          "name": "",
          "type": "uint256"
        }
      ],
      "stateMutability": "view",
      "type": "function"
    },
    {
      "inputs": [],
      "name": "_liquidityFee",
      "outputs": [
        {
          "internalType": "uint256",
          "name": "",
          "type": "uint256"
        }
      ],
      "stateMutability": "view",
      "type": "function"
    },
    {
      "inputs": [],
      "name": "_taxFee",
      "outputs": [
        {
          "internalType": "uint256",
          "name": "",
          "type": "uint256"
        }
      ],
      "stateMutability": "view",
      "type": "function"
    },
    {
      "inputs": [
        {
          "internalType": "address",
          "name": "owner",
          "type": "address"
        },
        {
          "internalType": "address",
          "name": "spender",
          "type": "address"
        }
      ],
      "name": "allowance",
      "outputs": [
        {
          "internalType": "uint256",
          "name": "",
          "type": "uint256"
        }
      ],
      "stateMutability": "view",
      "type": "function"
    },
    {
      "inputs": [
        {
          "internalType": "address",
          "name": "spender",
          "type": "address"
        },
        {
          "internalType": "uint256",
          "name": "amount",
          "type": "uint256"
        }
      ],
      "name": "approve",
      "outputs": [
        {
          "internalType": "bool",
          "name": "",
          "type": "bool"
        }
      ],
      "stateMutability": "nonpayable",
      "type": "function"
    },
    {
      "inputs": [
        {
          "internalType": "address",
          "name": "account",
          "type": "address"
        }
      ],
      "name": "balanceOf",
      "outputs": [
        {
          "internalType": "uint256",
          "name": "",
          "type": "uint256"
        }
      ],
      "stateMutability": "view",
      "type": "function"
    },
    {
      "inputs": [],
      "name": "decimals",
      "outputs": [
        {
          "internalType": "uint8",
          "name": "",
          "type": "uint8"
        }
      ],
      "stateMutability": "view",
      "type": "function"
    },
    {
      "inputs": [
        {
          "internalType": "address",
          "name": "spender",
          "type": "address"
        },
        {
          "internalType": "uint256",
          "name": "subtractedValue",
          "type": "uint256"
        }
      ],
      "name": "decreaseAllowance",
      "outputs": [
        {
          "internalType": "bool",
          "name": "",
          "type": "bool"
        }
      ],
      "stateMutability": "nonpayable",
      "type": "function"
    },
    {
      "inputs": [
        {
          "internalType": "uint256",
          "name": "tAmount",
          "type": "uint256"
        }
      ],
      "name": "deliver",
      "outputs": [],
      "stateMutability": "nonpayable",
      "type": "function"
    },
    {
      "inputs": [
        {
          "internalType": "address",
          "name": "spender",
          "type": "address"
        },
        {
          "internalType": "uint256",
          "name": "addedValue",
          "type": "uint256"
        }
      ],
      "name": "increaseAllowance",
      "outputs": [
        {
          "internalType": "bool",
          "name": "",
          "type": "bool"
        }
      ],
      "stateMutability": "nonpayable",
      "type": "function"
    },
    {
      "inputs": [
        {
          "internalType": "address",
          "name": "account",
          "type": "address"
        }
      ],
      "name": "isExcludedFromFee",
      "outputs": [
        {
          "internalType": "bool",
          "name": "",
          "type": "bool"
        }
      ],
      "stateMutability": "view",
      "type": "function"
    },
    {
      "inputs": [
        {
          "internalType": "address",
          "name": "account",
          "type": "address"
        }
      ],
      "name": "isExcludedFromReward",
      "outputs": [
        {
          "internalType": "bool",
          "name": "",
          "type": "bool"
        }
      ],
      "stateMutability": "view",
      "type": "function"
    },
    {
      "inputs": [],
      "name": "name",
      "outputs": [
        {
          "internalType": "string",
          "name": "",
          "type": "string"
        }
      ],
      "stateMutability": "view",
      "type": "function"
    },
    {
      "inputs": [],
      "name": "owner",
      "outputs": [
        {
          "internalType": "address",
          "name": "",
          "type": "address"
        }
      ],
      "stateMutability": "view",
      "type": "function"
    },
    {
      "inputs": [
        {
          "internalType": "uint256",
          "name": "tAmount",
          "type": "uint256"
        },
        {
          "internalType": "bool",
          "name": "deductTransferFee",
          "type": "bool"
        }
      ],
      "name": "reflectionFromToken",
      "outputs": [
        {
          "internalType": "uint256",
          "name": "",
          "type": "uint256"
        }
      ],
      "stateMutability": "view",
      "type": "function"
    },
    {
      "inputs": [],
      "name": "renounceOwnership",
      "outputs": [],
      "stateMutability": "nonpayable",
      "type": "function"
    },
    {
      "inputs": [],
      "name": "swapAndLiquifyEnabled",
      "outputs": [
        {
          "internalType": "bool",
          "name": "",
          "type": "bool"
        }
      ],
      "stateMutability": "view",
      "type": "function"
    },
    {
      "inputs": [],
      "name": "symbol",
      "outputs": [
        {
          "internalType": "string",
          "name": "",
          "type": "string"
        }
      ],
      "stateMutability": "view",
      "type": "function"
    },
    {
      "inputs": [
        {
          "internalType": "uint256",
          "name": "rAmount",
          "type": "uint256"
        }
      ],
      "name": "tokenFromReflection",
      "outputs": [
        {
          "internalType": "uint256",
          "name": "",
          "type": "uint256"
        }
      ],
      "stateMutability": "view",
      "type": "function"
    },
    {
      "inputs": [],
      "name": "totalFees",
      "outputs": [
        {
          "internalType": "uint256",
          "name": "",
          "type": "uint256"
        }
      ],
      "stateMutability": "view",
      "type": "function"
    },
    {
      "inputs": [],
      "name": "totalSupply",
      "outputs": [
        {
          "internalType": "uint256",
          "name": "",
          "type": "uint256"
        }
      ],
      "stateMutability": "view",
      "type": "function"
    },
    {
      "inputs": [
        {
          "internalType": "address",
          "name": "recipient",
          "type": "address"
        },
        {
          "internalType": "uint256",
          "name": "amount",
          "type": "uint256"
        }
      ],
      "name": "transfer",
      "outputs": [
        {
          "internalType": "bool",
          "name": "",
          "type": "bool"
        }
      ],
      "stateMutability": "nonpayable",
      "type": "function"
    },
    {
      "inputs": [
        {
          "internalType": "address",
          "name": "sender",
          "type": "address"
        },
        {
          "internalType": "address",
          "name": "recipient",
          "type": "address"
        },
        {
          "internalType": "uint256",
          "name": "amount",
          "type": "uint256"
        }
      ],
      "name": "transferFrom",
      "outputs": [
        {
          "internalType": "bool",
          "name": "",
          "type": "bool"
        }
      ],
      "stateMutability": "nonpayable",
      "type": "function"
    },
    {
      "inputs": [
        {
          "internalType": "address",
          "name": "newOwner",
          "type": "address"
        }
      ],
      "name": "transferOwnership",
      "outputs": [],
      "stateMutability": "nonpayable",
      "type": "function"
    },
    {
      "inputs": [],
      "name": "uniswapV2Pair",
      "outputs": [
        {
          "internalType": "address",
          "name": "",
          "type": "address"
        }
      ],
      "stateMutability": "view",
      "type": "function"
    },
    {
      "inputs": [],
      "name": "uniswapV2Router",
      "outputs": [
        {
          "internalType": "contract IUniswapV2Router02",
          "name": "",
          "type": "address"
        }
      ],
      "stateMutability": "view",
      "type": "function"
    },
    {
      "stateMutability": "payable",
      "type": "receive"
    }
  ],
  "transactionHash": "0xbd658f976be283384d5201f273d8554a8dd0c0c983b134bbcbc7a9bac90c20b0",
  "args": [],
  "numDeployments": 1,
  "solcInputHash": "0adac20f0fb991b087a89d847f77504c",
  "bytecode": "0x60806040523480156200001157600080fd5b5062000032620000266200062c60201b60201c565b6200063460201b60201c565b6040518060400160405280601081526020017f57616c616f204564205368656572616e00000000000000000000000000000000815250600a90805190602001906200007f92919062000739565b506040518060400160405280600381526020017f5745530000000000000000000000000000000000000000000000000000000000815250600b9080519060200190620000cd92919062000739565b506012600c60006101000a81548160ff021916908360ff1602179055506a084595161401484a0000006007819055506007546000196200010e9190620009e6565b6000196200011d91906200090e565b6008819055506101f4600d81905550600d54600e819055506064600f81905550600f5460108190555073a5deaab6e955dcf98bcc028eb42ae3f4ce508173601560006101000a81548173ffffffffffffffffffffffffffffffffffffffff021916908373ffffffffffffffffffffffffffffffffffffffff1602179055506064601181905550601154601281905550620001ca6103e8600854620006f860201b6200121a1790919060201c565b60168190555060016015806101000a81548160ff02191690831515021790555060085460016000620002016200071060201b60201c565b73ffffffffffffffffffffffffffffffffffffffff1673ffffffffffffffffffffffffffffffffffffffff168152602001908152602001600020819055506000737a250d5630b4cf539739df2c5dacb4c659f2488d905060008190508073ffffffffffffffffffffffffffffffffffffffff1663c45a01556040518163ffffffff1660e01b815260040160206040518083038186803b158015620002a457600080fd5b505afa158015620002b9573d6000803e3d6000fd5b505050506040513d601f19601f82011682018060405250810190620002df919062000800565b73ffffffffffffffffffffffffffffffffffffffff1663c9c65396308373ffffffffffffffffffffffffffffffffffffffff1663ad5c46486040518163ffffffff1660e01b815260040160206040518083038186803b1580156200034257600080fd5b505afa15801562000357573d6000803e3d6000fd5b505050506040513d601f19601f820116820180604052508101906200037d919062000800565b6040518363ffffffff1660e01b81526004016200039c9291906200085f565b602060405180830381600087803b158015620003b757600080fd5b505af1158015620003cc573d6000803e3d6000fd5b505050506040513d601f19601f82011682018060405250810190620003f2919062000800565b601460006101000a81548173ffffffffffffffffffffffffffffffffffffffff021916908373ffffffffffffffffffffffffffffffffffffffff16021790555080601360006101000a81548173ffffffffffffffffffffffffffffffffffffffff021916908373ffffffffffffffffffffffffffffffffffffffff160217905550600160046000620004896200071060201b60201c565b73ffffffffffffffffffffffffffffffffffffffff1673ffffffffffffffffffffffffffffffffffffffff16815260200190815260200160002060006101000a81548160ff0219169083151502179055506001600460003073ffffffffffffffffffffffffffffffffffffffff1673ffffffffffffffffffffffffffffffffffffffff16815260200190815260200160002060006101000a81548160ff021916908315150217905550620005426200071060201b60201c565b73ffffffffffffffffffffffffffffffffffffffff16600073ffffffffffffffffffffffffffffffffffffffff167fddf252ad1be2c89b69c2b068fc378daa952ba7f163c4a11628f55a4df523b3ef600754604051620005a39190620008b9565b60405180910390a33073ffffffffffffffffffffffffffffffffffffffff16620005d26200071060201b60201c565b73ffffffffffffffffffffffffffffffffffffffff167f56358b41df5fa59f5639228f0930994cbdde383c8a8fd74e06c04e1deebe35626002806040516200061c9291906200088c565b60405180910390a3505062000b0b565b600033905090565b60008060009054906101000a900473ffffffffffffffffffffffffffffffffffffffff169050816000806101000a81548173ffffffffffffffffffffffffffffffffffffffff021916908373ffffffffffffffffffffffffffffffffffffffff1602179055508173ffffffffffffffffffffffffffffffffffffffff168173ffffffffffffffffffffffffffffffffffffffff167f8be0079c531659141344cd1fd0a4f28419497f9722a3daafe3b4186f6b6457e060405160405180910390a35050565b60008183620007089190620008d6565b905092915050565b60008060009054906101000a900473ffffffffffffffffffffffffffffffffffffffff16905090565b8280546200074790620009b0565b90600052602060002090601f0160209004810192826200076b5760008555620007b7565b82601f106200078657805160ff1916838001178555620007b7565b82800160010185558215620007b7579182015b82811115620007b657825182559160200191906001019062000799565b5b509050620007c69190620007ca565b5090565b5b80821115620007e5576000816000905550600101620007cb565b5090565b600081519050620007fa8162000af1565b92915050565b6000602082840312156200081357600080fd5b60006200082384828501620007e9565b91505092915050565b620008378162000949565b82525050565b62000848816200099c565b82525050565b620008598162000992565b82525050565b60006040820190506200087660008301856200082c565b6200088560208301846200082c565b9392505050565b6000604082019050620008a360008301856200083d565b620008b260208301846200084e565b9392505050565b6000602082019050620008d060008301846200084e565b92915050565b6000620008e38262000992565b9150620008f08362000992565b92508262000903576200090262000a4d565b5b828204905092915050565b60006200091b8262000992565b9150620009288362000992565b9250828210156200093e576200093d62000a1e565b5b828203905092915050565b6000620009568262000972565b9050919050565b60008190506200096d8262000ada565b919050565b600073ffffffffffffffffffffffffffffffffffffffff82169050919050565b6000819050919050565b6000620009a9826200095d565b9050919050565b60006002820490506001821680620009c957607f821691505b60208210811415620009e057620009df62000aab565b5b50919050565b6000620009f38262000992565b915062000a008362000992565b92508262000a135762000a1262000a4d565b5b828206905092915050565b7f4e487b7100000000000000000000000000000000000000000000000000000000600052601160045260246000fd5b7f4e487b7100000000000000000000000000000000000000000000000000000000600052601260045260246000fd5b7f4e487b7100000000000000000000000000000000000000000000000000000000600052602160045260246000fd5b7f4e487b7100000000000000000000000000000000000000000000000000000000600052602260045260246000fd5b6008811062000aee5762000aed62000a7c565b5b50565b62000afc8162000949565b811462000b0857600080fd5b50565b6142c68062000b1b6000396000f3fe6080604052600436106101c65760003560e01c806349bd5a5e116100f75780638da5cb5b11610095578063bc063e1a11610064578063bc063e1a146106a3578063dd62ed3e146106ce578063f2fde38b1461070b578063ffa1ad7414610734576101cd565b80638da5cb5b146105d357806395d89b41146105fe578063a457c2d714610629578063a9059cbb14610666576101cd565b80636bc87c3a116100d15780636bc87c3a1461051757806370a0823114610542578063715018a61461057f57806388f8202014610596576101cd565b806349bd5a5e146104845780634a74bb02146104af5780635342acb4146104da576101cd565b80632d838119116101645780633b124fe71161013e5780633b124fe7146103c85780633bd5d173146103f357806340f8007a1461041c5780634549b03914610447576101cd565b80632d83811914610323578063313ce56714610360578063395093511461038b576101cd565b80631694505e116101a05780631694505e1461026557806318160ddd1461029057806319a8ac9e146102bb57806323b872dd146102e6576101cd565b806306fdde03146101d2578063095ea7b3146101fd57806313114a9d1461023a576101cd565b366101cd57005b600080fd5b3480156101de57600080fd5b506101e761075f565b6040516101f491906139ca565b60405180910390f35b34801561020957600080fd5b50610224600480360381019061021f91906135b2565b6107f1565b6040516102319190613994565b60405180910390f35b34801561024657600080fd5b5061024f61080f565b60405161025c9190613b2c565b60405180910390f35b34801561027157600080fd5b5061027a610819565b60405161028791906139af565b60405180910390f35b34801561029c57600080fd5b506102a561083f565b6040516102b29190613b2c565b60405180910390f35b3480156102c757600080fd5b506102d0610849565b6040516102dd9190613918565b60405180910390f35b3480156102f257600080fd5b5061030d60048036038101906103089190613563565b61086f565b60405161031a9190613994565b60405180910390f35b34801561032f57600080fd5b5061034a600480360381019061034591906135ee565b610948565b6040516103579190613b2c565b60405180910390f35b34801561036c57600080fd5b506103756109b6565b6040516103829190613bd8565b60405180910390f35b34801561039757600080fd5b506103b260048036038101906103ad91906135b2565b6109cd565b6040516103bf9190613994565b60405180910390f35b3480156103d457600080fd5b506103dd610a80565b6040516103ea9190613b2c565b60405180910390f35b3480156103ff57600080fd5b5061041a600480360381019061041591906135ee565b610a86565b005b34801561042857600080fd5b50610431610c02565b60405161043e9190613b2c565b60405180910390f35b34801561045357600080fd5b5061046e60048036038101906104699190613617565b610c08565b60405161047b9190613b2c565b60405180910390f35b34801561049057600080fd5b50610499610c8e565b6040516104a69190613918565b60405180910390f35b3480156104bb57600080fd5b506104c4610cb4565b6040516104d19190613994565b60405180910390f35b3480156104e657600080fd5b5061050160048036038101906104fc91906134d5565b610cc5565b60405161050e9190613994565b60405180910390f35b34801561052357600080fd5b5061052c610d1b565b6040516105399190613b2c565b60405180910390f35b34801561054e57600080fd5b50610569600480360381019061056491906134d5565b610d21565b6040516105769190613b2c565b60405180910390f35b34801561058b57600080fd5b50610594610e0c565b005b3480156105a257600080fd5b506105bd60048036038101906105b891906134d5565b610e94565b6040516105ca9190613994565b60405180910390f35b3480156105df57600080fd5b506105e8610eea565b6040516105f59190613918565b60405180910390f35b34801561060a57600080fd5b50610613610f13565b60405161062091906139ca565b60405180910390f35b34801561063557600080fd5b50610650600480360381019061064b91906135b2565b610fa5565b60405161065d9190613994565b60405180910390f35b34801561067257600080fd5b5061068d600480360381019061068891906135b2565b611072565b60405161069a9190613994565b60405180910390f35b3480156106af57600080fd5b506106b8611090565b6040516106c59190613b2c565b60405180910390f35b3480156106da57600080fd5b506106f560048036038101906106f09190613527565b611096565b6040516107029190613b2c565b60405180910390f35b34801561071757600080fd5b50610732600480360381019061072d91906134d5565b61111d565b005b34801561074057600080fd5b50610749611215565b6040516107569190613b2c565b60405180910390f35b6060600a805461076e90613e1b565b80601f016020809104026020016040519081016040528092919081815260200182805461079a90613e1b565b80156107e75780601f106107bc576101008083540402835291602001916107e7565b820191906000526020600020905b8154815290600101906020018083116107ca57829003601f168201915b5050505050905090565b60006108056107fe611230565b8484611238565b6001905092915050565b6000600954905090565b601360009054906101000a900473ffffffffffffffffffffffffffffffffffffffff1681565b6000600754905090565b601560009054906101000a900473ffffffffffffffffffffffffffffffffffffffff1681565b600061087c848484611403565b61093d84610888611230565b6109388560405180606001604052806028815260200161424460289139600360008b73ffffffffffffffffffffffffffffffffffffffff1673ffffffffffffffffffffffffffffffffffffffff16815260200190815260200160002060006108ee611230565b73ffffffffffffffffffffffffffffffffffffffff1673ffffffffffffffffffffffffffffffffffffffff168152602001908152602001600020546116a09092919063ffffffff16565b611238565b600190509392505050565b600060085482111561098f576040517f08c379a000000000000000000000000000000000000000000000000000000000815260040161098690613a0c565b60405180910390fd5b60006109996116f5565b90506109ae818461121a90919063ffffffff16565b915050919050565b6000600c60009054906101000a900460ff16905090565b6000610a766109da611230565b84610a7185600360006109eb611230565b73ffffffffffffffffffffffffffffffffffffffff1673ffffffffffffffffffffffffffffffffffffffff16815260200190815260200160002060008973ffffffffffffffffffffffffffffffffffffffff1673ffffffffffffffffffffffffffffffffffffffff1681526020019081526020016000205461172090919063ffffffff16565b611238565b6001905092915050565b600d5481565b6000610a90611230565b9050600560008273ffffffffffffffffffffffffffffffffffffffff1673ffffffffffffffffffffffffffffffffffffffff16815260200190815260200160002060009054906101000a900460ff1615610b1f576040517f08c379a0000000000000000000000000000000000000000000000000000000008152600401610b1690613b0c565b60405180910390fd5b6000610b2a83611736565b5050505050509050610b8481600160008573ffffffffffffffffffffffffffffffffffffffff1673ffffffffffffffffffffffffffffffffffffffff1681526020019081526020016000205461179e90919063ffffffff16565b600160008473ffffffffffffffffffffffffffffffffffffffff1673ffffffffffffffffffffffffffffffffffffffff16815260200190815260200160002081905550610bdc8160085461179e90919063ffffffff16565b600881905550610bf78360095461172090919063ffffffff16565b600981905550505050565b60115481565b6000600754831115610c4f576040517f08c379a0000000000000000000000000000000000000000000000000000000008152600401610c4690613a6c565b60405180910390fd5b81610c70576000610c5f84611736565b505050505050905080915050610c88565b6000610c7b84611736565b5050505050915050809150505b92915050565b601460009054906101000a900473ffffffffffffffffffffffffffffffffffffffff1681565b60158054906101000a900460ff1681565b6000600460008373ffffffffffffffffffffffffffffffffffffffff1673ffffffffffffffffffffffffffffffffffffffff16815260200190815260200160002060009054906101000a900460ff169050919050565b600f5481565b6000600560008373ffffffffffffffffffffffffffffffffffffffff1673ffffffffffffffffffffffffffffffffffffffff16815260200190815260200160002060009054906101000a900460ff1615610dbc57600260008373ffffffffffffffffffffffffffffffffffffffff1673ffffffffffffffffffffffffffffffffffffffff168152602001908152602001600020549050610e07565b610e04600160008473ffffffffffffffffffffffffffffffffffffffff1673ffffffffffffffffffffffffffffffffffffffff16815260200190815260200160002054610948565b90505b919050565b610e14611230565b73ffffffffffffffffffffffffffffffffffffffff16610e32610eea565b73ffffffffffffffffffffffffffffffffffffffff1614610e88576040517f08c379a0000000000000000000000000000000000000000000000000000000008152600401610e7f90613a8c565b60405180910390fd5b610e9260006117b4565b565b6000600560008373ffffffffffffffffffffffffffffffffffffffff1673ffffffffffffffffffffffffffffffffffffffff16815260200190815260200160002060009054906101000a900460ff169050919050565b60008060009054906101000a900473ffffffffffffffffffffffffffffffffffffffff16905090565b6060600b8054610f2290613e1b565b80601f0160208091040260200160405190810160405280929190818152602001828054610f4e90613e1b565b8015610f9b5780601f10610f7057610100808354040283529160200191610f9b565b820191906000526020600020905b815481529060010190602001808311610f7e57829003601f168201915b5050505050905090565b6000611068610fb2611230565b846110638560405180606001604052806025815260200161426c6025913960036000610fdc611230565b73ffffffffffffffffffffffffffffffffffffffff1673ffffffffffffffffffffffffffffffffffffffff16815260200190815260200160002060008a73ffffffffffffffffffffffffffffffffffffffff1673ffffffffffffffffffffffffffffffffffffffff168152602001908152602001600020546116a09092919063ffffffff16565b611238565b6001905092915050565b600061108661107f611230565b8484611403565b6001905092915050565b6109c481565b6000600360008473ffffffffffffffffffffffffffffffffffffffff1673ffffffffffffffffffffffffffffffffffffffff16815260200190815260200160002060008373ffffffffffffffffffffffffffffffffffffffff1673ffffffffffffffffffffffffffffffffffffffff16815260200190815260200160002054905092915050565b611125611230565b73ffffffffffffffffffffffffffffffffffffffff16611143610eea565b73ffffffffffffffffffffffffffffffffffffffff1614611199576040517f08c379a000000000000000000000000000000000000000000000000000000000815260040161119090613a8c565b60405180910390fd5b600073ffffffffffffffffffffffffffffffffffffffff168173ffffffffffffffffffffffffffffffffffffffff161415611209576040517f08c379a000000000000000000000000000000000000000000000000000000000815260040161120090613a2c565b60405180910390fd5b611212816117b4565b50565b600281565b600081836112289190613c9e565b905092915050565b600033905090565b600073ffffffffffffffffffffffffffffffffffffffff168373ffffffffffffffffffffffffffffffffffffffff1614156112a8576040517f08c379a000000000000000000000000000000000000000000000000000000000815260040161129f90613aec565b60405180910390fd5b600073ffffffffffffffffffffffffffffffffffffffff168273ffffffffffffffffffffffffffffffffffffffff161415611318576040517f08c379a000000000000000000000000000000000000000000000000000000000815260040161130f90613a4c565b60405180910390fd5b80600360008573ffffffffffffffffffffffffffffffffffffffff1673ffffffffffffffffffffffffffffffffffffffff16815260200190815260200160002060008473ffffffffffffffffffffffffffffffffffffffff1673ffffffffffffffffffffffffffffffffffffffff168152602001908152602001600020819055508173ffffffffffffffffffffffffffffffffffffffff168373ffffffffffffffffffffffffffffffffffffffff167f8c5be1e5ebec7d5bd14f71427d1e84f3dd0314c0f7b2291e5b200ac8c7c3b925836040516113f69190613b2c565b60405180910390a3505050565b600073ffffffffffffffffffffffffffffffffffffffff168373ffffffffffffffffffffffffffffffffffffffff161415611473576040517f08c379a000000000000000000000000000000000000000000000000000000000815260040161146a90613acc565b60405180910390fd5b600073ffffffffffffffffffffffffffffffffffffffff168273ffffffffffffffffffffffffffffffffffffffff1614156114e3576040517f08c379a00000000000000000000000000000000000000000000000000000000081526004016114da906139ec565b60405180910390fd5b60008111611526576040517f08c379a000000000000000000000000000000000000000000000000000000000815260040161151d90613aac565b60405180910390fd5b600061153130610d21565b9050600060165482101590508080156115575750601560149054906101000a900460ff16155b80156115b15750601460009054906101000a900473ffffffffffffffffffffffffffffffffffffffff1673ffffffffffffffffffffffffffffffffffffffff168573ffffffffffffffffffffffffffffffffffffffff1614155b80156115c7575060158054906101000a900460ff165b156115db5760165491506115da82611878565b5b600060019050600460008773ffffffffffffffffffffffffffffffffffffffff1673ffffffffffffffffffffffffffffffffffffffff16815260200190815260200160002060009054906101000a900460ff16806116825750600460008673ffffffffffffffffffffffffffffffffffffffff1673ffffffffffffffffffffffffffffffffffffffff16815260200190815260200160002060009054906101000a900460ff165b1561168c57600090505b6116988686868461194e565b505050505050565b60008383111582906116e8576040517f08c379a00000000000000000000000000000000000000000000000000000000081526004016116df91906139ca565b60405180910390fd5b5082840390509392505050565b6000806000611702611c5f565b91509150611719818361121a90919063ffffffff16565b9250505090565b6000818361172e9190613c48565b905092915050565b60008060008060008060008060008060006117508c611faa565b935093509350935060008060006117718f87878761176c6116f5565b612029565b925092509250828282898989899d509d509d509d509d509d509d5050505050505050919395979092949650565b600081836117ac9190613d29565b905092915050565b60008060009054906101000a900473ffffffffffffffffffffffffffffffffffffffff169050816000806101000a81548173ffffffffffffffffffffffffffffffffffffffff021916908373ffffffffffffffffffffffffffffffffffffffff1602179055508173ffffffffffffffffffffffffffffffffffffffff168173ffffffffffffffffffffffffffffffffffffffff167f8be0079c531659141344cd1fd0a4f28419497f9722a3daafe3b4186f6b6457e060405160405180910390a35050565b6001601560146101000a81548160ff02191690831515021790555060006118a960028361121a90919063ffffffff16565b905060006118c0828461179e90919063ffffffff16565b905060004790506118d0836120dd565b60006118e5824761179e90919063ffffffff16565b90506118f183826123a1565b7f17bbfb9a6069321b6ded73bd96327c9e6b7212a5cd51ff219cd61370acafb56184828560405161192493929190613ba1565b60405180910390a1505050506000601560146101000a81548160ff02191690831515021790555050565b8061195c5761195b612490565b5b600560008573ffffffffffffffffffffffffffffffffffffffff1673ffffffffffffffffffffffffffffffffffffffff16815260200190815260200160002060009054906101000a900460ff1680156119ff5750600560008473ffffffffffffffffffffffffffffffffffffffff1673ffffffffffffffffffffffffffffffffffffffff16815260200190815260200160002060009054906101000a900460ff16155b15611a1457611a0f8484846124c5565b611c4b565b600560008573ffffffffffffffffffffffffffffffffffffffff1673ffffffffffffffffffffffffffffffffffffffff16815260200190815260200160002060009054906101000a900460ff16158015611ab75750600560008473ffffffffffffffffffffffffffffffffffffffff1673ffffffffffffffffffffffffffffffffffffffff16815260200190815260200160002060009054906101000a900460ff165b15611acc57611ac7848484612733565b611c4a565b600560008573ffffffffffffffffffffffffffffffffffffffff1673ffffffffffffffffffffffffffffffffffffffff16815260200190815260200160002060009054906101000a900460ff16158015611b705750600560008473ffffffffffffffffffffffffffffffffffffffff1673ffffffffffffffffffffffffffffffffffffffff16815260200190815260200160002060009054906101000a900460ff16155b15611b8557611b808484846129a1565b611c49565b600560008573ffffffffffffffffffffffffffffffffffffffff1673ffffffffffffffffffffffffffffffffffffffff16815260200190815260200160002060009054906101000a900460ff168015611c275750600560008473ffffffffffffffffffffffffffffffffffffffff1673ffffffffffffffffffffffffffffffffffffffff16815260200190815260200160002060009054906101000a900460ff165b15611c3c57611c37848484612b7a565b611c48565b611c478484846129a1565b5b5b5b5b80611c5957611c58612e7d565b5b50505050565b600080600060085490506000600754905060005b600680549050811015611f6d57826001600060068481548110611cbf577f4e487b7100000000000000000000000000000000000000000000000000000000600052603260045260246000fd5b9060005260206000200160009054906101000a900473ffffffffffffffffffffffffffffffffffffffff1673ffffffffffffffffffffffffffffffffffffffff1673ffffffffffffffffffffffffffffffffffffffff168152602001908152602001600020541180611dd35750816002600060068481548110611d6b577f4e487b7100000000000000000000000000000000000000000000000000000000600052603260045260246000fd5b9060005260206000200160009054906101000a900473ffffffffffffffffffffffffffffffffffffffff1673ffffffffffffffffffffffffffffffffffffffff1673ffffffffffffffffffffffffffffffffffffffff16815260200190815260200160002054115b15611dea5760085460075494509450505050611fa6565b611ea06001600060068481548110611e2b577f4e487b7100000000000000000000000000000000000000000000000000000000600052603260045260246000fd5b9060005260206000200160009054906101000a900473ffffffffffffffffffffffffffffffffffffffff1673ffffffffffffffffffffffffffffffffffffffff1673ffffffffffffffffffffffffffffffffffffffff168152602001908152602001600020548461179e90919063ffffffff16565b9250611f586002600060068481548110611ee3577f4e487b7100000000000000000000000000000000000000000000000000000000600052603260045260246000fd5b9060005260206000200160009054906101000a900473ffffffffffffffffffffffffffffffffffffffff1673ffffffffffffffffffffffffffffffffffffffff1673ffffffffffffffffffffffffffffffffffffffff168152602001908152602001600020548361179e90919063ffffffff16565b91508080611f6590613e4d565b915050611c73565b50611f8560075460085461121a90919063ffffffff16565b821015611f9d57600854600754935093505050611fa6565b81819350935050505b9091565b6000806000806000611fbb86612e9a565b90506000611fc887612ecc565b90506000611fd588612efe565b905060006120108261200285611ff4888e61179e90919063ffffffff16565b61179e90919063ffffffff16565b61179e90919063ffffffff16565b9050808484849750975097509750505050509193509193565b600080600080612042858a612f9090919063ffffffff16565b90506000612059868a612f9090919063ffffffff16565b90506000612070878a612f9090919063ffffffff16565b90506000612087888a612f9090919063ffffffff16565b905060006120c2826120b4856120a6888a61179e90919063ffffffff16565b61179e90919063ffffffff16565b61179e90919063ffffffff16565b90508481859750975097505050505050955095509592505050565b6000600267ffffffffffffffff811115612120577f4e487b7100000000000000000000000000000000000000000000000000000000600052604160045260246000fd5b60405190808252806020026020018201604052801561214e5781602001602082028036833780820191505090505b509050308160008151811061218c577f4e487b7100000000000000000000000000000000000000000000000000000000600052603260045260246000fd5b602002602001019073ffffffffffffffffffffffffffffffffffffffff16908173ffffffffffffffffffffffffffffffffffffffff1681525050601360009054906101000a900473ffffffffffffffffffffffffffffffffffffffff1673ffffffffffffffffffffffffffffffffffffffff1663ad5c46486040518163ffffffff1660e01b815260040160206040518083038186803b15801561222e57600080fd5b505afa158015612242573d6000803e3d6000fd5b505050506040513d601f19601f8201168201806040525081019061226691906134fe565b816001815181106122a0577f4e487b7100000000000000000000000000000000000000000000000000000000600052603260045260246000fd5b602002602001019073ffffffffffffffffffffffffffffffffffffffff16908173ffffffffffffffffffffffffffffffffffffffff168152505061230730601360009054906101000a900473ffffffffffffffffffffffffffffffffffffffff1684611238565b601360009054906101000a900473ffffffffffffffffffffffffffffffffffffffff1673ffffffffffffffffffffffffffffffffffffffff1663791ac9478360008430426040518663ffffffff1660e01b815260040161236b959493929190613b47565b600060405180830381600087803b15801561238557600080fd5b505af1158015612399573d6000803e3d6000fd5b505050505050565b6123ce30601360009054906101000a900473ffffffffffffffffffffffffffffffffffffffff1684611238565b601360009054906101000a900473ffffffffffffffffffffffffffffffffffffffff1673ffffffffffffffffffffffffffffffffffffffff1663f305d71982308560008061dead426040518863ffffffff1660e01b815260040161243796959493929190613933565b6060604051808303818588803b15801561245057600080fd5b505af1158015612464573d6000803e3d6000fd5b50505050506040513d601f19601f820116820180604052508101906124899190613653565b5050505050565b600d54600e81905550600f546010819055506011546012819055506000600d819055506000600f819055506000601181905550565b60008060008060008060006124d988611736565b965096509650965096509650965061253988600260008d73ffffffffffffffffffffffffffffffffffffffff1673ffffffffffffffffffffffffffffffffffffffff1681526020019081526020016000205461179e90919063ffffffff16565b600260008c73ffffffffffffffffffffffffffffffffffffffff1673ffffffffffffffffffffffffffffffffffffffff168152602001908152602001600020819055506125ce87600160008d73ffffffffffffffffffffffffffffffffffffffff1673ffffffffffffffffffffffffffffffffffffffff1681526020019081526020016000205461179e90919063ffffffff16565b600160008c73ffffffffffffffffffffffffffffffffffffffff1673ffffffffffffffffffffffffffffffffffffffff1681526020019081526020016000208190555061266386600160008c73ffffffffffffffffffffffffffffffffffffffff1673ffffffffffffffffffffffffffffffffffffffff1681526020019081526020016000205461172090919063ffffffff16565b600160008b73ffffffffffffffffffffffffffffffffffffffff1673ffffffffffffffffffffffffffffffffffffffff168152602001908152602001600020819055506126af82612fa6565b6126b88161314b565b6126c28584613432565b8873ffffffffffffffffffffffffffffffffffffffff168a73ffffffffffffffffffffffffffffffffffffffff167fddf252ad1be2c89b69c2b068fc378daa952ba7f163c4a11628f55a4df523b3ef8660405161271f9190613b2c565b60405180910390a350505050505050505050565b600080600080600080600061274788611736565b96509650965096509650965096506127a787600160008d73ffffffffffffffffffffffffffffffffffffffff1673ffffffffffffffffffffffffffffffffffffffff1681526020019081526020016000205461179e90919063ffffffff16565b600160008c73ffffffffffffffffffffffffffffffffffffffff1673ffffffffffffffffffffffffffffffffffffffff1681526020019081526020016000208190555061283c84600260008c73ffffffffffffffffffffffffffffffffffffffff1673ffffffffffffffffffffffffffffffffffffffff1681526020019081526020016000205461172090919063ffffffff16565b600260008b73ffffffffffffffffffffffffffffffffffffffff1673ffffffffffffffffffffffffffffffffffffffff168152602001908152602001600020819055506128d186600160008c73ffffffffffffffffffffffffffffffffffffffff1673ffffffffffffffffffffffffffffffffffffffff1681526020019081526020016000205461172090919063ffffffff16565b600160008b73ffffffffffffffffffffffffffffffffffffffff1673ffffffffffffffffffffffffffffffffffffffff1681526020019081526020016000208190555061291d82612fa6565b6129268161314b565b6129308584613432565b8873ffffffffffffffffffffffffffffffffffffffff168a73ffffffffffffffffffffffffffffffffffffffff167fddf252ad1be2c89b69c2b068fc378daa952ba7f163c4a11628f55a4df523b3ef8660405161298d9190613b2c565b60405180910390a350505050505050505050565b60008060008060008060006129b588611736565b9650965096509650965096509650612a1587600160008d73ffffffffffffffffffffffffffffffffffffffff1673ffffffffffffffffffffffffffffffffffffffff1681526020019081526020016000205461179e90919063ffffffff16565b600160008c73ffffffffffffffffffffffffffffffffffffffff1673ffffffffffffffffffffffffffffffffffffffff16815260200190815260200160002081905550612aaa86600160008c73ffffffffffffffffffffffffffffffffffffffff1673ffffffffffffffffffffffffffffffffffffffff1681526020019081526020016000205461172090919063ffffffff16565b600160008b73ffffffffffffffffffffffffffffffffffffffff1673ffffffffffffffffffffffffffffffffffffffff16815260200190815260200160002081905550612af682612fa6565b612aff8161314b565b612b098584613432565b8873ffffffffffffffffffffffffffffffffffffffff168a73ffffffffffffffffffffffffffffffffffffffff167fddf252ad1be2c89b69c2b068fc378daa952ba7f163c4a11628f55a4df523b3ef86604051612b669190613b2c565b60405180910390a350505050505050505050565b6000806000806000806000612b8e88611736565b9650965096509650965096509650612bee88600260008d73ffffffffffffffffffffffffffffffffffffffff1673ffffffffffffffffffffffffffffffffffffffff1681526020019081526020016000205461179e90919063ffffffff16565b600260008c73ffffffffffffffffffffffffffffffffffffffff1673ffffffffffffffffffffffffffffffffffffffff16815260200190815260200160002081905550612c8387600160008d73ffffffffffffffffffffffffffffffffffffffff1673ffffffffffffffffffffffffffffffffffffffff1681526020019081526020016000205461179e90919063ffffffff16565b600160008c73ffffffffffffffffffffffffffffffffffffffff1673ffffffffffffffffffffffffffffffffffffffff16815260200190815260200160002081905550612d1884600260008c73ffffffffffffffffffffffffffffffffffffffff1673ffffffffffffffffffffffffffffffffffffffff1681526020019081526020016000205461172090919063ffffffff16565b600260008b73ffffffffffffffffffffffffffffffffffffffff1673ffffffffffffffffffffffffffffffffffffffff16815260200190815260200160002081905550612dad86600160008c73ffffffffffffffffffffffffffffffffffffffff1673ffffffffffffffffffffffffffffffffffffffff1681526020019081526020016000205461172090919063ffffffff16565b600160008b73ffffffffffffffffffffffffffffffffffffffff1673ffffffffffffffffffffffffffffffffffffffff16815260200190815260200160002081905550612df982612fa6565b612e028161314b565b612e0c8584613432565b8873ffffffffffffffffffffffffffffffffffffffff168a73ffffffffffffffffffffffffffffffffffffffff167fddf252ad1be2c89b69c2b068fc378daa952ba7f163c4a11628f55a4df523b3ef86604051612e699190613b2c565b60405180910390a350505050505050505050565b600e54600d81905550601054600f81905550601254601181905550565b6000612ec5612710612eb7600d5485612f9090919063ffffffff16565b61121a90919063ffffffff16565b9050919050565b6000612ef7612710612ee9600f5485612f9090919063ffffffff16565b61121a90919063ffffffff16565b9050919050565b60008073ffffffffffffffffffffffffffffffffffffffff16601560009054906101000a900473ffffffffffffffffffffffffffffffffffffffff1673ffffffffffffffffffffffffffffffffffffffff161415612f5f5760009050612f8b565b612f88612710612f7a60115485612f9090919063ffffffff16565b61121a90919063ffffffff16565b90505b919050565b60008183612f9e9190613ccf565b905092915050565b6000612fb06116f5565b90506000612fc78284612f9090919063ffffffff16565b905061301b81600160003073ffffffffffffffffffffffffffffffffffffffff1673ffffffffffffffffffffffffffffffffffffffff1681526020019081526020016000205461172090919063ffffffff16565b600160003073ffffffffffffffffffffffffffffffffffffffff1673ffffffffffffffffffffffffffffffffffffffff16815260200190815260200160002081905550600560003073ffffffffffffffffffffffffffffffffffffffff1673ffffffffffffffffffffffffffffffffffffffff16815260200190815260200160002060009054906101000a900460ff16156131465761310283600260003073ffffffffffffffffffffffffffffffffffffffff1673ffffffffffffffffffffffffffffffffffffffff1681526020019081526020016000205461172090919063ffffffff16565b600260003073ffffffffffffffffffffffffffffffffffffffff1673ffffffffffffffffffffffffffffffffffffffff168152602001908152602001600020819055505b505050565b600081111561342f57600061315e6116f5565b905060006131758284612f9090919063ffffffff16565b90506131eb8160016000601560009054906101000a900473ffffffffffffffffffffffffffffffffffffffff1673ffffffffffffffffffffffffffffffffffffffff1673ffffffffffffffffffffffffffffffffffffffff1681526020019081526020016000205461172090919063ffffffff16565b60016000601560009054906101000a900473ffffffffffffffffffffffffffffffffffffffff1673ffffffffffffffffffffffffffffffffffffffff1673ffffffffffffffffffffffffffffffffffffffff1681526020019081526020016000208190555060056000601560009054906101000a900473ffffffffffffffffffffffffffffffffffffffff1673ffffffffffffffffffffffffffffffffffffffff1673ffffffffffffffffffffffffffffffffffffffff16815260200190815260200160002060009054906101000a900460ff161561339e576133388360026000601560009054906101000a900473ffffffffffffffffffffffffffffffffffffffff1673ffffffffffffffffffffffffffffffffffffffff1673ffffffffffffffffffffffffffffffffffffffff1681526020019081526020016000205461172090919063ffffffff16565b60026000601560009054906101000a900473ffffffffffffffffffffffffffffffffffffffff1673ffffffffffffffffffffffffffffffffffffffff1673ffffffffffffffffffffffffffffffffffffffff168152602001908152602001600020819055505b601560009054906101000a900473ffffffffffffffffffffffffffffffffffffffff1673ffffffffffffffffffffffffffffffffffffffff166133df611230565b73ffffffffffffffffffffffffffffffffffffffff167fddf252ad1be2c89b69c2b068fc378daa952ba7f163c4a11628f55a4df523b3ef856040516134249190613b2c565b60405180910390a350505b50565b6134478260085461179e90919063ffffffff16565b6008819055506134628160095461172090919063ffffffff16565b6009819055505050565b60008135905061347b816141fe565b92915050565b600081519050613490816141fe565b92915050565b6000813590506134a581614215565b92915050565b6000813590506134ba8161422c565b92915050565b6000815190506134cf8161422c565b92915050565b6000602082840312156134e757600080fd5b60006134f58482850161346c565b91505092915050565b60006020828403121561351057600080fd5b600061351e84828501613481565b91505092915050565b6000806040838503121561353a57600080fd5b60006135488582860161346c565b92505060206135598582860161346c565b9150509250929050565b60008060006060848603121561357857600080fd5b60006135868682870161346c565b93505060206135978682870161346c565b92505060406135a8868287016134ab565b9150509250925092565b600080604083850312156135c557600080fd5b60006135d38582860161346c565b92505060206135e4858286016134ab565b9150509250929050565b60006020828403121561360057600080fd5b600061360e848285016134ab565b91505092915050565b6000806040838503121561362a57600080fd5b6000613638858286016134ab565b925050602061364985828601613496565b9150509250929050565b60008060006060848603121561366857600080fd5b6000613676868287016134c0565b9350506020613687868287016134c0565b9250506040613698868287016134c0565b9150509250925092565b60006136ae83836136ba565b60208301905092915050565b6136c381613d5d565b82525050565b6136d281613d5d565b82525050565b60006136e382613c03565b6136ed8185613c26565b93506136f883613bf3565b8060005b8381101561372957815161371088826136a2565b975061371b83613c19565b9250506001810190506136fc565b5085935050505092915050565b61373f81613d6f565b82525050565b61374e81613db2565b82525050565b61375d81613dd6565b82525050565b600061376e82613c0e565b6137788185613c37565b9350613788818560208601613de8565b61379181613f23565b840191505092915050565b60006137a9602383613c37565b91506137b482613f34565b604082019050919050565b60006137cc602a83613c37565b91506137d782613f83565b604082019050919050565b60006137ef602683613c37565b91506137fa82613fd2565b604082019050919050565b6000613812602283613c37565b915061381d82614021565b604082019050919050565b6000613835601f83613c37565b915061384082614070565b602082019050919050565b6000613858602083613c37565b915061386382614099565b602082019050919050565b600061387b602983613c37565b9150613886826140c2565b604082019050919050565b600061389e602583613c37565b91506138a982614111565b604082019050919050565b60006138c1602483613c37565b91506138cc82614160565b604082019050919050565b60006138e4602c83613c37565b91506138ef826141af565b604082019050919050565b61390381613d9b565b82525050565b61391281613da5565b82525050565b600060208201905061392d60008301846136c9565b92915050565b600060c08201905061394860008301896136c9565b61395560208301886138fa565b6139626040830187613754565b61396f6060830186613754565b61397c60808301856136c9565b61398960a08301846138fa565b979650505050505050565b60006020820190506139a96000830184613736565b92915050565b60006020820190506139c46000830184613745565b92915050565b600060208201905081810360008301526139e48184613763565b905092915050565b60006020820190508181036000830152613a058161379c565b9050919050565b60006020820190508181036000830152613a25816137bf565b9050919050565b60006020820190508181036000830152613a45816137e2565b9050919050565b60006020820190508181036000830152613a6581613805565b9050919050565b60006020820190508181036000830152613a8581613828565b9050919050565b60006020820190508181036000830152613aa58161384b565b9050919050565b60006020820190508181036000830152613ac58161386e565b9050919050565b60006020820190508181036000830152613ae581613891565b9050919050565b60006020820190508181036000830152613b05816138b4565b9050919050565b60006020820190508181036000830152613b25816138d7565b9050919050565b6000602082019050613b4160008301846138fa565b92915050565b600060a082019050613b5c60008301886138fa565b613b696020830187613754565b8181036040830152613b7b81866136d8565b9050613b8a60608301856136c9565b613b9760808301846138fa565b9695505050505050565b6000606082019050613bb660008301866138fa565b613bc360208301856138fa565b613bd060408301846138fa565b949350505050565b6000602082019050613bed6000830184613909565b92915050565b6000819050602082019050919050565b600081519050919050565b600081519050919050565b6000602082019050919050565b600082825260208201905092915050565b600082825260208201905092915050565b6000613c5382613d9b565b9150613c5e83613d9b565b9250827fffffffffffffffffffffffffffffffffffffffffffffffffffffffffffffffff03821115613c9357613c92613e96565b5b828201905092915050565b6000613ca982613d9b565b9150613cb483613d9b565b925082613cc457613cc3613ec5565b5b828204905092915050565b6000613cda82613d9b565b9150613ce583613d9b565b9250817fffffffffffffffffffffffffffffffffffffffffffffffffffffffffffffffff0483118215151615613d1e57613d1d613e96565b5b828202905092915050565b6000613d3482613d9b565b9150613d3f83613d9b565b925082821015613d5257613d51613e96565b5b828203905092915050565b6000613d6882613d7b565b9050919050565b60008115159050919050565b600073ffffffffffffffffffffffffffffffffffffffff82169050919050565b6000819050919050565b600060ff82169050919050565b6000613dbd82613dc4565b9050919050565b6000613dcf82613d7b565b9050919050565b6000613de182613d9b565b9050919050565b60005b83811015613e06578082015181840152602081019050613deb565b83811115613e15576000848401525b50505050565b60006002820490506001821680613e3357607f821691505b60208210811415613e4757613e46613ef4565b5b50919050565b6000613e5882613d9b565b91507fffffffffffffffffffffffffffffffffffffffffffffffffffffffffffffffff821415613e8b57613e8a613e96565b5b600182019050919050565b7f4e487b7100000000000000000000000000000000000000000000000000000000600052601160045260246000fd5b7f4e487b7100000000000000000000000000000000000000000000000000000000600052601260045260246000fd5b7f4e487b7100000000000000000000000000000000000000000000000000000000600052602260045260246000fd5b6000601f19601f8301169050919050565b7f45524332303a207472616e7366657220746f20746865207a65726f206164647260008201527f6573730000000000000000000000000000000000000000000000000000000000602082015250565b7f416d6f756e74206d757374206265206c657373207468616e20746f74616c207260008201527f65666c656374696f6e7300000000000000000000000000000000000000000000602082015250565b7f4f776e61626c653a206e6577206f776e657220697320746865207a65726f206160008201527f6464726573730000000000000000000000000000000000000000000000000000602082015250565b7f45524332303a20617070726f766520746f20746865207a65726f20616464726560008201527f7373000000000000000000000000000000000000000000000000000000000000602082015250565b7f416d6f756e74206d757374206265206c657373207468616e20737570706c7900600082015250565b7f4f776e61626c653a2063616c6c6572206973206e6f7420746865206f776e6572600082015250565b7f5472616e7366657220616d6f756e74206d75737420626520677265617465722060008201527f7468616e207a65726f0000000000000000000000000000000000000000000000602082015250565b7f45524332303a207472616e736665722066726f6d20746865207a65726f20616460008201527f6472657373000000000000000000000000000000000000000000000000000000602082015250565b7f45524332303a20617070726f76652066726f6d20746865207a65726f2061646460008201527f7265737300000000000000000000000000000000000000000000000000000000602082015250565b7f4578636c75646564206164647265737365732063616e6e6f742063616c6c207460008201527f6869732066756e6374696f6e0000000000000000000000000000000000000000602082015250565b61420781613d5d565b811461421257600080fd5b50565b61421e81613d6f565b811461422957600080fd5b50565b61423581613d9b565b811461424057600080fd5b5056fe45524332303a207472616e7366657220616d6f756e74206578636565647320616c6c6f77616e636545524332303a2064656372656173656420616c6c6f77616e63652062656c6f77207a65726fa26469706673582212207f343f9d970116ba8e0696e8db29b68b262a731f93a9eb57d186628821065d0464736f6c63430008040033",
  "devdoc": {
    "kind": "dev",
    "methods": {
      "allowance(address,address)": {
        "details": "Returns the remaining number of tokens that `spender` will be allowed to spend on behalf of `owner` through {transferFrom}. This is zero by default. This value changes when {approve} or {transferFrom} are called."
      },
      "approve(address,uint256)": {
        "details": "Sets `amount` as the allowance of `spender` over the caller's tokens. Returns a boolean value indicating whether the operation succeeded. IMPORTANT: Beware that changing an allowance with this method brings the risk that someone may use both the old and the new allowance by unfortunate transaction ordering. One possible solution to mitigate this race condition is to first reduce the spender's allowance to 0 and set the desired value afterwards: https://github.com/ethereum/EIPs/issues/20#issuecomment-263524729 Emits an {Approval} event."
      },
      "balanceOf(address)": {
        "details": "Returns the amount of tokens owned by `account`."
      },
      "owner()": {
        "details": "Returns the address of the current owner."
      },
      "renounceOwnership()": {
        "details": "Leaves the contract without owner. It will not be possible to call `onlyOwner` functions anymore. Can only be called by the current owner. NOTE: Renouncing ownership will leave the contract without an owner, thereby removing any functionality that is only available to the owner."
      },
      "totalSupply()": {
        "details": "Returns the amount of tokens in existence."
      },
      "transfer(address,uint256)": {
        "details": "Moves `amount` tokens from the caller's account to `recipient`. Returns a boolean value indicating whether the operation succeeded. Emits a {Transfer} event."
      },
      "transferFrom(address,address,uint256)": {
        "details": "Moves `amount` tokens from `sender` to `recipient` using the allowance mechanism. `amount` is then deducted from the caller's allowance. Returns a boolean value indicating whether the operation succeeded. Emits a {Transfer} event."
      },
      "transferOwnership(address)": {
        "details": "Transfers ownership of the contract to a new account (`newOwner`). Can only be called by the current owner."
      }
    },
    "version": 1
  },
  "userdoc": {
    "kind": "user",
    "methods": {},
    "version": 1
  },
  "storageLayout": {
    "storage": [
      {
        "astId": 101,
        "contract": "contracts/WalaoEdSheeran.sol:WalaoEdSheeran",
        "label": "_owner",
        "offset": 0,
        "slot": "0",
        "type": "t_address"
      },
      {
        "astId": 1302,
        "contract": "contracts/WalaoEdSheeran.sol:WalaoEdSheeran",
        "label": "_rOwned",
        "offset": 0,
        "slot": "1",
        "type": "t_mapping(t_address,t_uint256)"
      },
      {
        "astId": 1306,
        "contract": "contracts/WalaoEdSheeran.sol:WalaoEdSheeran",
        "label": "_tOwned",
        "offset": 0,
        "slot": "2",
        "type": "t_mapping(t_address,t_uint256)"
      },
      {
        "astId": 1312,
        "contract": "contracts/WalaoEdSheeran.sol:WalaoEdSheeran",
        "label": "_allowances",
        "offset": 0,
        "slot": "3",
        "type": "t_mapping(t_address,t_mapping(t_address,t_uint256))"
      },
      {
        "astId": 1316,
        "contract": "contracts/WalaoEdSheeran.sol:WalaoEdSheeran",
        "label": "_isExcludedFromFee",
        "offset": 0,
        "slot": "4",
        "type": "t_mapping(t_address,t_bool)"
      },
      {
        "astId": 1320,
        "contract": "contracts/WalaoEdSheeran.sol:WalaoEdSheeran",
        "label": "_isExcluded",
        "offset": 0,
        "slot": "5",
        "type": "t_mapping(t_address,t_bool)"
      },
      {
        "astId": 1323,
        "contract": "contracts/WalaoEdSheeran.sol:WalaoEdSheeran",
        "label": "_excluded",
        "offset": 0,
        "slot": "6",
        "type": "t_array(t_address)dyn_storage"
      },
      {
        "astId": 1332,
        "contract": "contracts/WalaoEdSheeran.sol:WalaoEdSheeran",
        "label": "_tTotal",
        "offset": 0,
        "slot": "7",
        "type": "t_uint256"
      },
      {
        "astId": 1334,
        "contract": "contracts/WalaoEdSheeran.sol:WalaoEdSheeran",
        "label": "_rTotal",
        "offset": 0,
        "slot": "8",
        "type": "t_uint256"
      },
      {
        "astId": 1336,
        "contract": "contracts/WalaoEdSheeran.sol:WalaoEdSheeran",
        "label": "_tFeeTotal",
        "offset": 0,
        "slot": "9",
        "type": "t_uint256"
      },
      {
        "astId": 1338,
        "contract": "contracts/WalaoEdSheeran.sol:WalaoEdSheeran",
        "label": "_name",
        "offset": 0,
        "slot": "10",
        "type": "t_string_storage"
      },
      {
        "astId": 1340,
        "contract": "contracts/WalaoEdSheeran.sol:WalaoEdSheeran",
        "label": "_symbol",
        "offset": 0,
        "slot": "11",
        "type": "t_string_storage"
      },
      {
        "astId": 1342,
        "contract": "contracts/WalaoEdSheeran.sol:WalaoEdSheeran",
        "label": "_decimals",
        "offset": 0,
        "slot": "12",
        "type": "t_uint8"
      },
      {
        "astId": 1344,
        "contract": "contracts/WalaoEdSheeran.sol:WalaoEdSheeran",
        "label": "_taxFee",
        "offset": 0,
        "slot": "13",
        "type": "t_uint256"
      },
      {
        "astId": 1346,
        "contract": "contracts/WalaoEdSheeran.sol:WalaoEdSheeran",
        "label": "_previousTaxFee",
        "offset": 0,
        "slot": "14",
        "type": "t_uint256"
      },
      {
        "astId": 1348,
        "contract": "contracts/WalaoEdSheeran.sol:WalaoEdSheeran",
        "label": "_liquidityFee",
        "offset": 0,
        "slot": "15",
        "type": "t_uint256"
      },
      {
        "astId": 1350,
        "contract": "contracts/WalaoEdSheeran.sol:WalaoEdSheeran",
        "label": "_previousLiquidityFee",
        "offset": 0,
        "slot": "16",
        "type": "t_uint256"
      },
      {
        "astId": 1352,
        "contract": "contracts/WalaoEdSheeran.sol:WalaoEdSheeran",
        "label": "_charityFee",
        "offset": 0,
        "slot": "17",
        "type": "t_uint256"
      },
      {
        "astId": 1354,
        "contract": "contracts/WalaoEdSheeran.sol:WalaoEdSheeran",
        "label": "_previousCharityFee",
        "offset": 0,
        "slot": "18",
        "type": "t_uint256"
      },
      {
        "astId": 1357,
        "contract": "contracts/WalaoEdSheeran.sol:WalaoEdSheeran",
        "label": "uniswapV2Router",
        "offset": 0,
        "slot": "19",
        "type": "t_contract(IUniswapV2Router02)1193"
      },
      {
        "astId": 1359,
        "contract": "contracts/WalaoEdSheeran.sol:WalaoEdSheeran",
        "label": "uniswapV2Pair",
        "offset": 0,
        "slot": "20",
        "type": "t_address"
      },
      {
        "astId": 1361,
        "contract": "contracts/WalaoEdSheeran.sol:WalaoEdSheeran",
        "label": "_charityAddress",
        "offset": 0,
        "slot": "21",
        "type": "t_address"
      },
      {
        "astId": 1363,
        "contract": "contracts/WalaoEdSheeran.sol:WalaoEdSheeran",
        "label": "inSwapAndLiquify",
        "offset": 20,
        "slot": "21",
        "type": "t_bool"
      },
      {
        "astId": 1365,
        "contract": "contracts/WalaoEdSheeran.sol:WalaoEdSheeran",
        "label": "swapAndLiquifyEnabled",
        "offset": 21,
        "slot": "21",
        "type": "t_bool"
      },
      {
        "astId": 1367,
        "contract": "contracts/WalaoEdSheeran.sol:WalaoEdSheeran",
        "label": "numTokensSellToAddToLiquidity",
        "offset": 0,
        "slot": "22",
        "type": "t_uint256"
      }
    ],
    "types": {
      "t_address": {
        "encoding": "inplace",
        "label": "address",
        "numberOfBytes": "20"
      },
      "t_array(t_address)dyn_storage": {
        "base": "t_address",
        "encoding": "dynamic_array",
        "label": "address[]",
        "numberOfBytes": "32"
      },
      "t_bool": {
        "encoding": "inplace",
        "label": "bool",
        "numberOfBytes": "1"
      },
      "t_contract(IUniswapV2Router02)1193": {
        "encoding": "inplace",
        "label": "contract IUniswapV2Router02",
        "numberOfBytes": "20"
      },
      "t_mapping(t_address,t_bool)": {
        "encoding": "mapping",
        "key": "t_address",
        "label": "mapping(address => bool)",
        "numberOfBytes": "32",
        "value": "t_bool"
      },
      "t_mapping(t_address,t_mapping(t_address,t_uint256))": {
        "encoding": "mapping",
        "key": "t_address",
        "label": "mapping(address => mapping(address => uint256))",
        "numberOfBytes": "32",
        "value": "t_mapping(t_address,t_uint256)"
      },
      "t_mapping(t_address,t_uint256)": {
        "encoding": "mapping",
        "key": "t_address",
        "label": "mapping(address => uint256)",
        "numberOfBytes": "32",
        "value": "t_uint256"
      },
      "t_string_storage": {
        "encoding": "bytes",
        "label": "string",
        "numberOfBytes": "32"
      },
      "t_uint256": {
        "encoding": "inplace",
        "label": "uint256",
        "numberOfBytes": "32"
      },
      "t_uint8": {
        "encoding": "inplace",
        "label": "uint8",
        "numberOfBytes": "1"
      }
    }
  }
}